:100E810041542B434D47462B310A0041542B434DCE
:100E910047533D2239343738303530303031220A2A
:100EA100004C6F6E6769747564653A004C617474C7
:100EB10069747564653A0000454E544552204E559B
:100EC1004D4245520043414C4C494E472E2E2E2E49
:100ED1000043414C4C20454E4445440043414C4C59
:100EE1002052454349455645440043414C4C204618
:100EF100524F4D41542B434D47463D310041542BF8
:100F0100434D47523D006D7367206E756D6265728A
:100F110020006D7367206E756D626572200041540B
:090F21002B434D47443D00200024
:10110E007F307E75121133121133121133121133D7
:10111E007F0112117C7FB87E0B1211337F8012116A
:05112E007C7FB87E0B80
:10113300E4FDFCC3ED9FEE6480F8EC6480985007F7
:071143000DBD00010C80EC62
:01114A002282
:0A1172001211337F3A120FB17FC64D
:10117C008F90C280D2817FE87E03121133C281220C
:100F2A007FC012117C900006E0FEA3E0FF7C007DEA
:100F3A000A1206A190000CEEF0A3EFF02430FF1283
:100F4A000FB1900006E0FEA3E0FF7C007D0A1206C6
:100F5A00A190000CECF0A3EDF02430FF120FB17F4A
:100F6A00B87E0B1211337F3A120FB17FC312117C74
:100F7A00900008E0FEA3E0FF7C007D0A1206A19023
:100F8A00000EEEF0A3EFF02430FF120FB19000082C
:100F9A00E0FEA3E0FF7C007D0A1206A190000EECA1
:070FAA00F0A3EDF02430FF7D
:100FB1008F90D280D2817FE87E03121133C28122C9
:10118C007F3812117C7F0E12117C7F0612117C7F2E
:09119C000112117C7F8002117C1C
:100CF30075A0F0C2A3C2A2C2A1C2A030A40930A5AC
:100D03000630A60320A7EC20A4089000E1E4F0A39A
:100D130004F020A5099000E1E4F0A37402F020A6FA
:100D2300099000E1E4F0A37403F020A7099000E127
:100D3300E4F0A37404F075A00FC2A7C2A6C2A5C2B3
:100D4300A430A00930A10630A20320A3EC20A00701
:100D5300E49000E5F0A3F020A1099000E5E4F0A3FE
:100D63007404F020A2099000E5E4F0A37408F020D5
:100D7300A3099000E5E4F0A3740CF09000E1E0FE19
:100D8300A3E0FF9000E6E02FFF9000E5E03EFE9039
:100D930000E3F0A3EFF0640A4E70099000E3F0A3C0
:100DA3007409F0229000E3E07004A3E0640B700682
:070DB3009000E3F0A3F02221
:0C11B600759850758920758DFDD28E2231
:0911A500C2997F411211AE7F5482
:0811AE008F993099FDC29922CE
:100C2A0078027C007D017BFF7A0E79B87E007F0115
:100C3A0012067B78037C007D017BFF7A0E79B97EF0
:100C4A00007F0D12067BD2B7C2B27F0112117C7FE0
:100C5A008012117CE4FBFA74032BF58274003AF5D6
:100C6A0083E0FF120FB10BBB00010AEB640C4A7060
:100C7A00E67FC012117CE4FAFB120CF39000E3A3A6
:100C8A00E02430FF74022BF58274003AF583EFF00A
:100C9A0074D22BF58274003AF583EFF074022BF5C7
:100CAA008274003AF583E0FF120FB17F307E75122D
:100CBA0011330BBB00010AEB640A4A70BC1211A57E
:100CCA007F441211AEE4FAFB74022BF58274003AE7
:100CDA00F583E0FF1211AE0BBB00010AEB640A4A6E
:090CEA0070E67FB87E0B021133A5
:1010B90078027C007D017BFF7A0E79C67E007F0C69
:1010C90012067BD2B7C2B29000E7E4F0A304F07530
:1010D900993B3099FDC29975990D3099FD12110E00
:1010E900E4FBFA74022BF58274003AF583E0FF12EF
:1010F9000FB17F2C7E011211330BBB00010AEB6487
:041109000B4A70DF3E
:01110D0022BF
:100DBA0075A0F0C2A3C2A2C2A1C2A030A40930A5E4
:100DCA000630A60320A7EC20A4089000E1E4F0A3D3
:100DDA0004F020A5099000E1E4F0A37402F020A633
:100DEA00099000E1E4F0A37403F020A7099000E160
:100DFA00E4F0A37404F075A00FC2A7C2A6C2A5C2EC
:100E0A00A430A00930A10630A20320A3EC20A00739
:100E1A00E49000E5F0A3F020A1099000E5E4F0A336
:100E2A007404F020A2099000E5E4F0A37408F0200D
:100E3A00A3099000E5E4F0A3740CF09000E1E0FE51
:100E4A00A3E0FF9000E6E02FFF9000E5E03EFE9071
:100E5A0000E3F0A3EFF0640A4E70099000E3F0A3F8
:100E6A007409F0229000E3E07004A3E0640B7006BA
:070E7A009000E3F0A3F02259
:100A6C0075A0F0C2A3C2A2C2A1C2A030A42D30A511
:100A7C002A30A62730A7249000EAE004F0700690F4
:100A8C0000E9E004F0D39000EAE094309000E9E053
:100A9C00947540D7E4F0A3F0020B3320A407E49044
:100AAC0000E1F0A3F020A5089000E1E4F0A304F02D
:100ABC0020A6099000E1E4F0A37402F020A70990AD
:100ACC0000E1E4F0A37403F075A00FC2A7C2A6C2A4
:100ADC00A5C2A430A00930A10630A20320A3EC20AB
:100AEC00A007E49000E5F0A3F020A1099000E5E454
:100AFC00F0A37404F020A2099000E5E4F0A37408BC
:100B0C00F020A3099000E5E4F0A3740CF09000E150
:100B1C00E0FEA3E0FF9000E6E02FFF9000E5E03E52
:100B2C009000E3F0A3EFF07F2C7E011211339000C4
:100B3C00E3E0FEA3E0FF640A4E70099000E3F0A32B
:100B4C007409F022EF640B4E70069000E3F0A3F0F2
:010B5C002276
:1010560078277C007D017BFF7A0E79D27E007F0B9C
:1010660012067BD2B7C2B21211A57F481211AE7F0B
:101076000D1211AED29912110EE4FBFA74272BF55C
:101086008274003AF583E0FF120FB17F2C7E0112C5
:1010960011330BBB00010AEB640A4A70DF9000E7CC
:1010A600E07004A3E0640170099000E7F0A3F01279
:0210B600092C03
:0110B8002215
:1003680078107C007D017BFF7A0E79DD7E007F0EA0
:1003780012067B781E7C007D017BFF7A0E79EB7E6E
:10038800007F0912067BD2B7C2B29000E7E4F0A35F
:1003980004F075A0F07FC012117CE4FBFA74102BF6
:1003A800F58274003AF583E0FF120FB17F2C7E01CD
:1003B8001211330BBB00010AEB640D4A70DF7F801A
:1003C80012117C3098FDC298E599B42BF63098FD4F
:1003D800C298E599B439F63098FDC298E599B431D8
:1003E800F6E4900002F0A3F0FAFB3098FDC2989072
:1003F8000002E0FEA3E024D2F58274003EF583E516
:1004080099F0900003E004F07006900002E004F018
:100418000BBB00010AEB640A4A70CF12112AE4FAF6
:10042800FBD3900003E09BEA6480F8900002E0644C
:100438008098401D74D22BF58274003AF583E0FF52
:10044800120FB17F2C7E011211330BBB00010A8001
:10045800D01211A57F411211AE7F0D1211AED299A3
:100468007F307E751211331211331211237FC0129F
:10047800117CE4900006F0A3F0E4900008F0A3F0EB
:10048800E490000AF0A3F0120F2A7F007E7D12117B
:100498007290000AE0FEA3E0FF7C007D0A1206A12C
:1004A800AB07AA06EF2430FF120FB190000AE0FE56
:1004B800A3E0FF7C007D0A1206A1AA04AB05EB2489
:1004C80030FF120FB17F20120FB17F20120FB17FC2
:1004D80020120FB17F20120FB17F20120FB1E5A0BB
:1004E80064F06052120CF39000E3E07004A3E0643F
:1004F8000C70EB121056120F2A7FC27E3312117243
:1005080090000AE0FEA3E0FF7C007D0A1206A1AA83
:1005180006AB07EF2430FF120FB190000AE0FEA3EC
:10052800E0FF7C007D0A1206A1AA04AB05EB24308B
:10053800FF120FB1806690000BE004F07006900087
:100548000AE004F0C390000BE0943C90000AE064D9
:10055800809480500302048F900009E004F0700634
:10056800900008E004F0C3900009E0943C90000873
:10057800E0648094805003020488900007E004F04F
:100588007006900006E004F0C3900007E0940C9019
:100598000006E06480948050030204817F017E009D
:0305A8000211330A
:1007CA0078697C007D017BFF7A0E79F47E007F0ACE
:1007DA0012067B78737C007D017BFF7A0E79FE7EA0
:1007EA00007F0912067B787C7C007D017BFF7A0FF3
:1007FA0079077E007F0C12067BD2B7C2B2C299E497
:10080A00FBFA74692BF58274003AF583E0FF121142
:10081A00AE0BBB00010AEB64094A70E6C2997599EE
:10082A000D3099FDC2997F8012117C7F0112117CD3
:10083A00E4FAFB74732BF58274003AF583E0FF1235
:10084A000FB174732BF58274003AF583E0FF12112D
:10085A00AE7F2C7E011211330BBB00010AEB640838
:10086A004A70D07FC012117CE4FAFB747C2BF582AB
:10087A0074003AF583E0FF120FB17F2C7E0112114A
:10088A00330BBB00010AEB640B4A70DF120CF37FD7
:10089A00307E751211339000E4E02430FE9000E3BC
:1008AA00E03400900065F0A3CEF07F8812117C90AE
:1008BA000065A3E0FF120FB1900065A3E0F599303F
:1008CA0099FDC29975990D3099FDC299E4FAFB30E8
:1008DA0098FD74022BF58274003AF583E599F0C20B
:1008EA00980BBB00010AEB64634A70E37F011211A3
:1008FA007C7A007B2874022BF58274003AF583E037
:10090A00FF120FB112112F0BBB00010AEB64634AED
:10091A0070E37F307E7512113312113312113302D4
:02092A00113387
:100B5D0078027C007D017BFF7A0F79137E007F0C7C
:100B6D0012067B780E7C007D017BFF7A0F791F7E4C
:100B7D00007F0912067BD2B7C2B2C299E4FBFA74A8
:100B8D000E2BF58274003AF583E0FF120FB1740E4F
:100B9D002BF58274003AF583E0FF1211AE7F2C7EA7
:100BAD00011211330BBB00010AEB64084A70D0C26D
:100BBD00997FC012117CE4FAFB74022BF58274004C
:100BCD003AF583E0FF120FB17F2C7E011211330B2A
:100BDD00BB00010AEB640B4A70DF120CF37F307E11
:100BED00751211339000E4E02430FF9000E3E034FF
:100BFD0000AB07FA7F8812117CAF03120FB18B99EE
:100C0D003099FDC29975990D3099FDC2997F307E4D
:0D0C1D00751211331211331211330211330D
:10092C00C2B7D2B23098FDC298E599B424F630988B
:10093C00FDC298E599B447F63098FDC298E599B494
:10094C0050F63098FDC298E599B447F63098FDC240
:10095C0098E599B447F63098FDC298E599B441F6FC
:10096C00E4FDFC3098FDAF99EFFBED25E0FFEC3397
:10097C00FE74322FF58274003EF583E4F0A3EBF0A5
:10098C00C2980DBD00010CED64324C70D6D2B7C2CA
:10099C00B2D2997BFF7A0E798112006E7F307E7510
:1009AC001211337BFF7A0E798C12006E7F307E75BC
:1009BC001211337BFF7A0E79A212006E7B0C7A0037
:1009CC00C299EB25E0FFEA33FE74322FF5827400F6
:1009DC003EF583A3E0F5993099FDC2990BBB00015C
:1009EC000AEB64184A70D97F307E75121133D29994
:1009FC007BFF7A0E79AD12006E7A007B1AC299EBEE
:100A0C0025E0FFEA33FE74322FF58274003EF58345
:100A1C00A3E0F5993099FDC2990BBB00010AEB6478
:100A2C00284A70D97F307E7512113375990D309923
:100A3C00FDC299E4FAFBC29974D22BF58274003A88
:100A4C00F583E0F5993099FDC2990BBB00010AEBD7
:0F0A5C00640A4A70E1C29975991A3099FDC299DE
:010A6B002268
:100FC10078007C007D017BFF7A0F79287E007F020B
:100FD10012067B12118C1211B6120CF39000E3E091
:100FE100FEA3E0FF640A4E700A9000E3F0A37409C7
:100FF100F080E6EF640B4E70089000E3F0A3F08000
:10100100D8EF64094E70051210B980CD9000E3E06D
:101011007004A3E0640C700512105680BC9000E3CC
:10102100E07004A3E0640D7005120C2A80AB9000FF
:10103100E3E07004A3E0640E7005120368809A90E7
:1010410000E3E07004A3E0640F70051207CA808911
:05105100120B5D80841C
:030000000211C228
:0C11C200787FE4F6D8FD758121020FC192
:1005AB00E709F608DFFA8046E709F208DFFA803E32
:1005BB0088828C83E709F0A3DFFA8032E309F6081F
:1005CB00DFFA8078E309F208DFFA807088828C8387
:1005DB00E309F0A3DFFA806489828A83E0A3F6083B
:1005EB00DFFA805889828A83E0A3F208DFFA804C15
:1005FB0080D280FA80C680D4806980F280338010EC
:10060B0080A680EA809A80A880DA80E280CA803354
:10061B0089828A83ECFAE493A3C8C582C8CCC583CC
:10062B00CCF0A3C8C582C8CCC583CCDFE9DEE7809C
:10063B000D89828A83E493A3F608DFF9ECFAA9F01B
:10064B00EDFB2289828A83ECFAE0A3C8C582C8CC71
:10065B00C583CCF0A3C8C582C8CCC583CCDFEADE8A
:10066B00E880DB89828A83E493A3F208DFF980CCEC
:10067B0088F0EF60010E4E60C388F0ED2402B404E5
:10068B000050B9F582EB2402B4040050AF2323458C
:06069B0082239005FB73B1
:1006A100C2D5EC30E709B2D5E4C39DFDE49CFCEE74
:1006B10030E715B2D5E4C39FFFE49EFE12072FC3B6
:1006C100E49DFDE49CFC800312072F30D507C3E4B1
:0606D1009FFFE49EFE22E3
:10000300E50824ADF582E43400F583E00508229089
:1000130000AA3007039000ADE475F00112078402D3
:1000230006D72000E97F2ED2008018EF540F2490CA
:10003300D43440D4FF30040BEF24BFB41A00500370
:100043002461FFE50960021509050CE50C70020542
:100053000B30070E9000AAE475F001120784EF023B
:10006300071D02114B7403D2078003E4C207F5088E
:100073009000AA12079BE4F509F50BF50CE509605E
:10008300077F2012004680F5750AFFC201C200C235
:1000930002C203C205C206C208120012FF700D306D
:1000A30007057F00120057AF0CAE0B22B4255FC2C9
:1000B300D5C204120012FF24D0B40A00501A75F0FE
:1000C3000A780930D50508B6FF0106C6A426F6202E
:1000D300D5047002D20380D924CFB41A00EF5004A0
:1000E300C2E5D204020258D20180C6D20080C0D237
:1000F3000280BCD2D580BAD20580B47F20120046DC
:100103002002077401B5090040F1120003FF120039
:1001130046020080D208D2068095120003FB12002B
:1001230003FA120003F94A4B700679297A037BFF1D
:1001330020022EE509602A7E008E82758300120656
:10014300F060060EEE650A70F0C2D5EBC0E0EAC0BF
:10015300E0E9C0E0EE12029FD0E0F9D0E0FAD0E08F
:10016300FB1206D7FF60AAEBC0E0EAC0E0E9C0E0FB
:10017300120046D0E02401F9D0E03400FAD0E0FBCD
:10018300E50A0460DCD50AD980877BFF7A02799B74
:10019300D202809C791080027908C206C2088008C6
:1001A300D2D5790A8004790AC2D5E50A047002F52A
:1001B3000AE4FAFDFEFF120003FC7B082001131280
:1001C3000003FD7B1030000A120003FE120003FF40
:1001D3007B20EC3382D592D55013C3E43000069FC5
:1001E300FFE49EFEE42001039DFDE49CFCE4CBF8C8
:1001F300C201EC700CCFCECDCCE824F8F870F380BC
:1002030017C3EF33FFEE33FEED33FDEC33FCEB337B
:10021300FB994002FB0FD8E9EB300105F8D0E0C4AD
:1002230048B201C0E00AEC4D4E4F78207B0070C20B
:10023300EAB50A0040BCC0E01202A1D0F0D0E02031
:100243000104C4C0E0C4B201C0F012002FD0F0D545
:10025300F0EB0200801207A4011D5301975800EE32
:100263004C00EA42019B4F01A34401A3490103430C
:0802730001A955018D46018D22
:10027B0045018D4703495000F22D00F62E01192B35
:10028B0000FA2301172003322A00B24800000111A3
:10029B003F3F3F00790AA2D5200314300509B9105E
:1002AB00020404B9080104A2D5200602500104205F
:1002BB0002689202B509005034C0E07F2030031968
:1002CB007F30A20272067205500F1202F8C202C2F0
:1002DB0006C205C2087F30800F300503E9C0E0126B
:1002EB000046300503D0E0F9D0E0B509CC30051756
:1002FB007F30B9100C1200467F583004077F78808E
:10030B0003B908031200463002057F2D0200467F19
:10031B00202008F87F2B2006F322920280CF286E34
:10032B00756C6C2900D2011200033001F8C2017800
:10033B000930D50108F60200B22D5043495812007E
:10034B00032403B405004001E490034493120037E7
:0D035B00743A120037D203750904020197AD
:1006D700BB010689828A83E0225002E722BBFE0221
:0906E700E32289828A83E4932254
:1006F000BB010CE58229F582E5833AF583E02250BF
:1007000006E92582F8E622BBFE06E92582F8E22208
:0D071000E58229F582E5833AF583E4932222
:10071D00BB010689828A83F0225002F722BBFE01BB
:02072D00F322B5
:10072F00BC000BBE0029EF8DF084FFADF022E4CCAE
:10073F00F875F008EF2FFFEE33FEEC33FCEE9DEC77
:10074F00984005FCEE9DFE0FD5F0E9E4CEFD22EDBD
:10075F00F8F5F0EE8420D21CFEADF075F008EF2F07
:10076F00FFED33FD4007985006D5F0F222C398FDF8
:05077F000FD5F0EA2295
:10078400F8E0FBA3A3E0F925F0F0E58215827002FE
:070794001583E0FA38F022A2
:09079B00EBF0A3EAF0A3E9F0225F
:1007A400D083D082F8E4937012740193700DA3A3E4
:1007B40093F8740193F5828883E4737402936860F8
:0607C400EFA3A3A380DFF8
:10114B00EFB40A07740D121156740A309811A8994E
:10115B00B8130CC2983098FDA899C298B811F63004
:07116B0099FDC299F59922DC
:00000001FF
